{
  "contractName": "BettingPool",
  "abi": [
    {
      "inputs": [],
      "stateMutability": "nonpayable",
      "type": "constructor"
    },
    {
      "anonymous": false,
      "inputs": [
        {
          "indexed": true,
          "internalType": "address",
          "name": "player",
          "type": "address"
        },
        {
          "indexed": false,
          "internalType": "string",
          "name": "team",
          "type": "string"
        },
        {
          "indexed": false,
          "internalType": "uint256",
          "name": "amount",
          "type": "uint256"
        }
      ],
      "name": "BetPlaced",
      "type": "event"
    },
    {
      "anonymous": false,
      "inputs": [
        {
          "indexed": true,
          "internalType": "address",
          "name": "previousOwner",
          "type": "address"
        },
        {
          "indexed": true,
          "internalType": "address",
          "name": "newOwner",
          "type": "address"
        }
      ],
      "name": "OwnershipTransferred",
      "type": "event"
    },
    {
      "inputs": [],
      "name": "owner",
      "outputs": [
        {
          "internalType": "address",
          "name": "",
          "type": "address"
        }
      ],
      "stateMutability": "view",
      "type": "function"
    },
    {
      "inputs": [],
      "name": "renounceOwnership",
      "outputs": [],
      "stateMutability": "nonpayable",
      "type": "function"
    },
    {
      "inputs": [
        {
          "internalType": "address",
          "name": "newOwner",
          "type": "address"
        }
      ],
      "name": "transferOwnership",
      "outputs": [],
      "stateMutability": "nonpayable",
      "type": "function"
    },
    {
      "inputs": [
        {
          "internalType": "string[]",
          "name": "teams",
          "type": "string[]"
        },
        {
          "internalType": "uint256",
          "name": "valueOfBets",
          "type": "uint256"
        }
      ],
      "name": "setUpBettingEvent",
      "outputs": [],
      "stateMutability": "nonpayable",
      "type": "function"
    },
    {
      "inputs": [
        {
          "internalType": "string",
          "name": "team",
          "type": "string"
        }
      ],
      "name": "placeBet",
      "outputs": [],
      "stateMutability": "payable",
      "type": "function"
    },
    {
      "inputs": [],
      "name": "isContractInUse",
      "outputs": [
        {
          "internalType": "bool",
          "name": "",
          "type": "bool"
        }
      ],
      "stateMutability": "view",
      "type": "function"
    },
    {
      "inputs": [],
      "name": "getAllBets",
      "outputs": [
        {
          "components": [
            {
              "internalType": "address",
              "name": "player",
              "type": "address"
            },
            {
              "internalType": "string",
              "name": "team",
              "type": "string"
            },
            {
              "internalType": "uint256",
              "name": "amount",
              "type": "uint256"
            }
          ],
          "internalType": "struct BettingPool.Bet[]",
          "name": "",
          "type": "tuple[]"
        }
      ],
      "stateMutability": "view",
      "type": "function"
    },
    {
      "inputs": [],
      "name": "getBetValue",
      "outputs": [
        {
          "internalType": "uint256",
          "name": "",
          "type": "uint256"
        }
      ],
      "stateMutability": "view",
      "type": "function"
    },
    {
      "inputs": [],
      "name": "getTotalPot",
      "outputs": [
        {
          "internalType": "uint256",
          "name": "",
          "type": "uint256"
        }
      ],
      "stateMutability": "view",
      "type": "function"
    },
    {
      "inputs": [],
      "name": "getAcceptedTeams",
      "outputs": [
        {
          "internalType": "string[]",
          "name": "",
          "type": "string[]"
        }
      ],
      "stateMutability": "view",
      "type": "function"
    }
  ],
  "bytecode": "0x608060405234801561001057600080fd5b5061002d61002261005560201b60201c565b61005d60201b60201c565b60006001819055506000600260006101000a81548160ff021916908315150217905550610121565b600033905090565b60008060009054906101000a900473ffffffffffffffffffffffffffffffffffffffff169050816000806101000a81548173ffffffffffffffffffffffffffffffffffffffff021916908373ffffffffffffffffffffffffffffffffffffffff1602179055508173ffffffffffffffffffffffffffffffffffffffff168173ffffffffffffffffffffffffffffffffffffffff167f8be0079c531659141344cd1fd0a4f28419497f9722a3daafe3b4186f6b6457e060405160405180910390a35050565b611b6a806101306000396000f3fe6080604052600436106100915760003560e01c8063715018a611610059578063715018a61461016b5780638da5cb5b1461018257806397bfeb88146101ad578063a606d5fd146101c9578063f2fde38b146101f457610091565b8063272348bb14610096578063480bc31f146100c15780634a64877a146100ec5780636e8c9a1414610115578063700eae7314610140575b600080fd5b3480156100a257600080fd5b506100ab61021d565b6040516100b89190610f75565b60405180910390f35b3480156100cd57600080fd5b506100d6610366565b6040516100e39190610fb0565b60405180910390f35b3480156100f857600080fd5b50610113600480360381019061010e9190611226565b61036e565b005b34801561012157600080fd5b5061012a6104cb565b6040516101379190610fb0565b60405180910390f35b34801561014c57600080fd5b506101556104d5565b60405161016291906113e4565b60405180910390f35b34801561017757600080fd5b5061018061069c565b005b34801561018e57600080fd5b50610197610724565b6040516101a49190611415565b60405180910390f35b6101c760048036038101906101c29190611430565b61074d565b005b3480156101d557600080fd5b506101de610a3e565b6040516101eb9190611494565b60405180910390f35b34801561020057600080fd5b5061021b600480360381019061021691906114db565b610a55565b005b6060600060058054905067ffffffffffffffff8111156102405761023f610fe4565b5b60405190808252806020026020018201604052801561027357816020015b606081526020019060019003908161025e5790505b50905060005b60058054905081101561035e576005818154811061029a57610299611508565b5b9060005260206000200180546102af90611566565b80601f01602080910402602001604051908101604052809291908181526020018280546102db90611566565b80156103285780601f106102fd57610100808354040283529160200191610328565b820191906000526020600020905b81548152906001019060200180831161030b57829003601f168201915b50505050508282815181106103405761033f611508565b5b60200260200101819052508080610356906115c7565b915050610279565b508091505090565b600047905090565b610376610b4d565b73ffffffffffffffffffffffffffffffffffffffff16610394610724565b73ffffffffffffffffffffffffffffffffffffffff16146103ea576040517f08c379a00000000000000000000000000000000000000000000000000000000081526004016103e19061166d565b60405180910390fd5b60001515600260009054906101000a900460ff16151514610440576040517f08c379a0000000000000000000000000000000000000000000000000000000008152600401610437906116d9565b60405180910390fd5b6001825111610484576040517f08c379a000000000000000000000000000000000000000000000000000000000815260040161047b9061176b565b60405180910390fd5b60016000815480929190610497906115c7565b91905055506001600260006101000a81548160ff021916908315150217905550806003819055506104c782610b55565b5050565b6000600354905090565b6060600060048054905067ffffffffffffffff8111156104f8576104f7610fe4565b5b60405190808252806020026020018201604052801561053157816020015b61051e610d40565b8152602001906001900390816105165790505b50905060005b600480549050811015610694576004818154811061055857610557611508565b5b90600052602060002090600302016040518060600160405290816000820160009054906101000a900473ffffffffffffffffffffffffffffffffffffffff1673ffffffffffffffffffffffffffffffffffffffff1673ffffffffffffffffffffffffffffffffffffffff1681526020016001820180546105d790611566565b80601f016020809104026020016040519081016040528092919081815260200182805461060390611566565b80156106505780601f1061062557610100808354040283529160200191610650565b820191906000526020600020905b81548152906001019060200180831161063357829003601f168201915b5050505050815260200160028201548152505082828151811061067657610675611508565b5b6020026020010181905250808061068c906115c7565b915050610537565b508091505090565b6106a4610b4d565b73ffffffffffffffffffffffffffffffffffffffff166106c2610724565b73ffffffffffffffffffffffffffffffffffffffff1614610718576040517f08c379a000000000000000000000000000000000000000000000000000000000815260040161070f9061166d565b60405180910390fd5b6107226000610bce565b565b60008060009054906101000a900473ffffffffffffffffffffffffffffffffffffffff16905090565b600260009054906101000a900460ff1661079c576040517f08c379a0000000000000000000000000000000000000000000000000000000008152600401610793906117d7565b60405180910390fd5b6000339050600034905060035481146107ea576040517f08c379a00000000000000000000000000000000000000000000000000000000081526004016107e190611843565b60405180910390fd5b6107f383610c92565b610832576040517f08c379a0000000000000000000000000000000000000000000000000000000008152600401610829906118af565b60405180910390fd5b60001515600660008473ffffffffffffffffffffffffffffffffffffffff1673ffffffffffffffffffffffffffffffffffffffff16815260200190815260200160002060009054906101000a900460ff161515146108c5576040517f08c379a00000000000000000000000000000000000000000000000000000000081526004016108bc9061191b565b60405180910390fd5b600460405180606001604052808473ffffffffffffffffffffffffffffffffffffffff16815260200185815260200183815250908060018154018082558091505060019003906000526020600020906003020160009091909190915060008201518160000160006101000a81548173ffffffffffffffffffffffffffffffffffffffff021916908373ffffffffffffffffffffffffffffffffffffffff1602179055506020820151816001019080519060200190610984929190610d77565b506040820151816002015550506001600660008473ffffffffffffffffffffffffffffffffffffffff1673ffffffffffffffffffffffffffffffffffffffff16815260200190815260200160002060006101000a81548160ff0219169083151502179055508173ffffffffffffffffffffffffffffffffffffffff167fed9e8d4ee7cb095e0673cd5e842e9fe8038df3e3d8b2f35cd251b1940ae6a1428483604051610a31929190611974565b60405180910390a2505050565b6000600260009054906101000a900460ff16905090565b610a5d610b4d565b73ffffffffffffffffffffffffffffffffffffffff16610a7b610724565b73ffffffffffffffffffffffffffffffffffffffff1614610ad1576040517f08c379a0000000000000000000000000000000000000000000000000000000008152600401610ac89061166d565b60405180910390fd5b600073ffffffffffffffffffffffffffffffffffffffff168173ffffffffffffffffffffffffffffffffffffffff161415610b41576040517f08c379a0000000000000000000000000000000000000000000000000000000008152600401610b3890611a16565b60405180910390fd5b610b4a81610bce565b50565b600033905090565b60005b8151811015610bca576005828281518110610b7657610b75611508565b5b6020026020010151908060018154018082558091505060019003906000526020600020016000909190919091509080519060200190610bb6929190610d77565b508080610bc2906115c7565b915050610b58565b5050565b60008060009054906101000a900473ffffffffffffffffffffffffffffffffffffffff169050816000806101000a81548173ffffffffffffffffffffffffffffffffffffffff021916908373ffffffffffffffffffffffffffffffffffffffff1602179055508173ffffffffffffffffffffffffffffffffffffffff168173ffffffffffffffffffffffffffffffffffffffff167f8be0079c531659141344cd1fd0a4f28419497f9722a3daafe3b4186f6b6457e060405160405180910390a35050565b600080600090505b600580549050811015610d355782604051602001610cb89190611a72565b6040516020818303038152906040528051906020012060058281548110610ce257610ce1611508565b5b90600052602060002001604051602001610cfc9190611b1d565b604051602081830303815290604052805190602001201415610d22576001915050610d3b565b8080610d2d906115c7565b915050610c9a565b50600090505b919050565b6040518060600160405280600073ffffffffffffffffffffffffffffffffffffffff16815260200160608152602001600081525090565b828054610d8390611566565b90600052602060002090601f016020900481019282610da55760008555610dec565b82601f10610dbe57805160ff1916838001178555610dec565b82800160010185558215610dec579182015b82811115610deb578251825591602001919060010190610dd0565b5b509050610df99190610dfd565b5090565b5b80821115610e16576000816000905550600101610dfe565b5090565b600081519050919050565b600082825260208201905092915050565b6000819050602082019050919050565b600081519050919050565b600082825260208201905092915050565b60005b83811015610e80578082015181840152602081019050610e65565b83811115610e8f576000848401525b50505050565b6000601f19601f8301169050919050565b6000610eb182610e46565b610ebb8185610e51565b9350610ecb818560208601610e62565b610ed481610e95565b840191505092915050565b6000610eeb8383610ea6565b905092915050565b6000602082019050919050565b6000610f0b82610e1a565b610f158185610e25565b935083602082028501610f2785610e36565b8060005b85811015610f635784840389528151610f448582610edf565b9450610f4f83610ef3565b925060208a01995050600181019050610f2b565b50829750879550505050505092915050565b60006020820190508181036000830152610f8f8184610f00565b905092915050565b6000819050919050565b610faa81610f97565b82525050565b6000602082019050610fc56000830184610fa1565b92915050565b6000604051905090565b600080fd5b600080fd5b600080fd5b7f4e487b7100000000000000000000000000000000000000000000000000000000600052604160045260246000fd5b61101c82610e95565b810181811067ffffffffffffffff8211171561103b5761103a610fe4565b5b80604052505050565b600061104e610fcb565b905061105a8282611013565b919050565b600067ffffffffffffffff82111561107a57611079610fe4565b5b602082029050602081019050919050565b600080fd5b600080fd5b600067ffffffffffffffff8211156110b0576110af610fe4565b5b6110b982610e95565b9050602081019050919050565b82818337600083830152505050565b60006110e86110e384611095565b611044565b90508281526020810184848401111561110457611103611090565b5b61110f8482856110c6565b509392505050565b600082601f83011261112c5761112b610fdf565b5b813561113c8482602086016110d5565b91505092915050565b60006111586111538461105f565b611044565b9050808382526020820190506020840283018581111561117b5761117a61108b565b5b835b818110156111c257803567ffffffffffffffff8111156111a05761119f610fdf565b5b8086016111ad8982611117565b8552602085019450505060208101905061117d565b5050509392505050565b600082601f8301126111e1576111e0610fdf565b5b81356111f1848260208601611145565b91505092915050565b61120381610f97565b811461120e57600080fd5b50565b600081359050611220816111fa565b92915050565b6000806040838503121561123d5761123c610fd5565b5b600083013567ffffffffffffffff81111561125b5761125a610fda565b5b611267858286016111cc565b925050602061127885828601611211565b9150509250929050565b600081519050919050565b600082825260208201905092915050565b6000819050602082019050919050565b600073ffffffffffffffffffffffffffffffffffffffff82169050919050565b60006112d9826112ae565b9050919050565b6112e9816112ce565b82525050565b6112f881610f97565b82525050565b600060608301600083015161131660008601826112e0565b506020830151848203602086015261132e8282610ea6565b915050604083015161134360408601826112ef565b508091505092915050565b600061135a83836112fe565b905092915050565b6000602082019050919050565b600061137a82611282565b611384818561128d565b9350836020820285016113968561129e565b8060005b858110156113d257848403895281516113b3858261134e565b94506113be83611362565b925060208a0199505060018101905061139a565b50829750879550505050505092915050565b600060208201905081810360008301526113fe818461136f565b905092915050565b61140f816112ce565b82525050565b600060208201905061142a6000830184611406565b92915050565b60006020828403121561144657611445610fd5565b5b600082013567ffffffffffffffff81111561146457611463610fda565b5b61147084828501611117565b91505092915050565b60008115159050919050565b61148e81611479565b82525050565b60006020820190506114a96000830184611485565b92915050565b6114b8816112ce565b81146114c357600080fd5b50565b6000813590506114d5816114af565b92915050565b6000602082840312156114f1576114f0610fd5565b5b60006114ff848285016114c6565b91505092915050565b7f4e487b7100000000000000000000000000000000000000000000000000000000600052603260045260246000fd5b7f4e487b7100000000000000000000000000000000000000000000000000000000600052602260045260246000fd5b6000600282049050600182168061157e57607f821691505b6020821081141561159257611591611537565b5b50919050565b7f4e487b7100000000000000000000000000000000000000000000000000000000600052601160045260246000fd5b60006115d282610f97565b91507fffffffffffffffffffffffffffffffffffffffffffffffffffffffffffffffff82141561160557611604611598565b5b600182019050919050565b600082825260208201905092915050565b7f4f776e61626c653a2063616c6c6572206973206e6f7420746865206f776e6572600082015250565b6000611657602083611610565b915061166282611621565b602082019050919050565b600060208201905081810360008301526116868161164a565b9050919050565b7f436f6e747261637420697320696e207573650000000000000000000000000000600082015250565b60006116c3601283611610565b91506116ce8261168d565b602082019050919050565b600060208201905081810360008301526116f2816116b6565b9050919050565b7f43616e2774206861766520612062657474696e672067616d6520776974686f7560008201527f74206174206c656173742074776f207465616d732e0000000000000000000000602082015250565b6000611755603583611610565b9150611760826116f9565b604082019050919050565b6000602082019050818103600083015261178481611748565b9050919050565b7f436f6e7472616374206973206e6f7420696e2075736500000000000000000000600082015250565b60006117c1601683611610565b91506117cc8261178b565b602082019050919050565b600060208201905081810360008301526117f0816117b4565b9050919050565b7f496e636f72726563742066756e64732e00000000000000000000000000000000600082015250565b600061182d601083611610565b9150611838826117f7565b602082019050919050565b6000602082019050818103600083015261185c81611820565b9050919050565b7f5465616d20697320696e76616c69642e00000000000000000000000000000000600082015250565b6000611899601083611610565b91506118a482611863565b602082019050919050565b600060208201905081810360008301526118c88161188c565b9050919050565b7f506c617965722068617320616c72656164792062657400000000000000000000600082015250565b6000611905601683611610565b9150611910826118cf565b602082019050919050565b60006020820190508181036000830152611934816118f8565b9050919050565b600061194682610e46565b6119508185611610565b9350611960818560208601610e62565b61196981610e95565b840191505092915050565b6000604082019050818103600083015261198e818561193b565b905061199d6020830184610fa1565b9392505050565b7f4f776e61626c653a206e6577206f776e657220697320746865207a65726f206160008201527f6464726573730000000000000000000000000000000000000000000000000000602082015250565b6000611a00602683611610565b9150611a0b826119a4565b604082019050919050565b60006020820190508181036000830152611a2f816119f3565b9050919050565b600081905092915050565b6000611a4c82610e46565b611a568185611a36565b9350611a66818560208601610e62565b80840191505092915050565b6000611a7e8284611a41565b915081905092915050565b60008190508160005260206000209050919050565b60008154611aab81611566565b611ab58186611a36565b94506001821660008114611ad05760018114611ae157611b14565b60ff19831686528186019350611b14565b611aea85611a89565b60005b83811015611b0c57815481890152600182019150602081019050611aed565b838801955050505b50505092915050565b6000611b298284611a9e565b91508190509291505056fea2646970667358221220cc6c72f6187642cc7a633cf7ca3c899c3893355a13c8c03085ebf3207489bbe964736f6c634300080b0033",
  "immutableReferences": {},
  "source": "//SPDX-License-Identifier: UNLICENSED\npragma solidity ^0.8.11;\n\nimport \"./Ownable.sol\";\n\ncontract BettingPool is Ownable {\n    event BetPlaced(address indexed player, string team, uint amount);\n\n    // this will be used to store the number of different betting games the contract has executed\n    uint bettingRound; \n\n    bool contractInUse; \n    uint betValue;\n\n    struct Bet {\n        address player;\n        string team;        // using official abbreviations\n        uint amount;        // this amount will contain 8 decimals\n    }\n\n    Bet[] bets;\n    string[] acceptedTeams;\n\n    mapping (address => bool) playerHasBet;\n\n    modifier notInUse() {\n        require(contractInUse == false, \"Contract is in use\");\n        _;\n    }\n\n    modifier inUse() {\n        require(contractInUse, \"Contract is not in use\");\n        _;\n    }\n\n    function checkTeamValid(string memory team) internal view returns (bool) {\n        for (uint i = 0; i < acceptedTeams.length; i++) {\n            if (keccak256(abi.encodePacked(acceptedTeams[i])) == keccak256(abi.encodePacked(team))) {\n                return true;\n            }\n        }\n        return false;\n    }\n\n    constructor() {\n        bettingRound = 0;\n        contractInUse = false;\n    }\n\n    function setUpBettingEvent(string[] memory teams, uint valueOfBets) external onlyOwner notInUse {\n        require(teams.length > 1, \"Can't have a betting game without at least two teams.\");\n        bettingRound++;\n        contractInUse = true;\n        betValue = valueOfBets;\n        addTeams(teams);\n    }\n\n    function addTeams(string[] memory teams) private {\n        for (uint i = 0; i < teams.length; i++) {\n            acceptedTeams.push(teams[i]);\n        }\n    }\n\n    function placeBet(string memory team) external payable inUse {\n        address player = msg.sender;\n        uint amount = msg.value;\n        // Check that bet is valid\n        require(amount == betValue, \"Incorrect funds.\");\n        require(checkTeamValid(team), \"Team is invalid.\");\n        require(playerHasBet[player]==false, \"Player has already bet\");\n        // Place bet and emit event\n        bets.push(Bet(player, team, amount));\n        playerHasBet[player] = true;\n        emit BetPlaced(player, team, amount);\n    }\n\n    // will tell if contract is in use\n    function isContractInUse() external view returns(bool) {\n         return contractInUse;\n    }\n\n    // get an array of all bets place, bets are in obect format\n    function getAllBets() external view returns(Bet[] memory) {\n         Bet[] memory result = new Bet[](bets.length);\n         for (uint i = 0; i < bets.length; i++) {\n             result[i] = bets[i];\n         }\n         return result;\n    }\n\n    // return the set bet value of the contract\n    function getBetValue() external view returns(uint) {\n         return betValue;\n    }\n\n    // total amount the contract holds in wei\n    function getTotalPot() external view returns(uint) {\n         return address(this).balance;\n    }\n\n    // get array of all accepted teams\n    function getAcceptedTeams() external view returns(string[] memory) {\n        string[] memory result = new string[](acceptedTeams.length);\n        for (uint i = 0; i < acceptedTeams.length; i++) {\n            result[i] = acceptedTeams[i];\n        }\n        return result;\n    }\n\n}\n",
  "sourcePath": "C:\\Users\\ikeef\\OneDrive\\Documents\\GitHub\\BettingOnBlockchainDapp\\BettingContract\\contracts\\bettingpool.sol",
  "compiler": {
    "name": "solc",
    "version": "0.8.11+commit.d7f03943.Emscripten.clang"
  },
  "schemaVersion": "3.4.4",
  "updatedAt": "2022-01-20T22:48:17.700Z",
  "devdoc": {
    "kind": "dev",
    "methods": {
      "owner()": {
        "details": "Returns the address of the current owner."
      },
      "renounceOwnership()": {
        "details": "Leaves the contract without owner. It will not be possible to call `onlyOwner` functions anymore. Can only be called by the current owner. NOTE: Renouncing ownership will leave the contract without an owner, thereby removing any functionality that is only available to the owner."
      },
      "transferOwnership(address)": {
        "details": "Transfers ownership of the contract to a new account (`newOwner`). Can only be called by the current owner."
      }
    },
    "version": 1
  },
  "userdoc": {
    "kind": "user",
    "methods": {},
    "version": 1
  }
}