{
  "contractName": "Payout",
  "abi": [
    {
      "anonymous": false,
      "inputs": [
        {
          "indexed": true,
          "internalType": "address",
          "name": "player",
          "type": "address"
        },
        {
          "indexed": false,
          "internalType": "string",
          "name": "team",
          "type": "string"
        },
        {
          "indexed": false,
          "internalType": "uint256",
          "name": "amount",
          "type": "uint256"
        }
      ],
      "name": "BetPlaced",
      "type": "event"
    },
    {
      "anonymous": false,
      "inputs": [
        {
          "indexed": true,
          "internalType": "address",
          "name": "previousOwner",
          "type": "address"
        },
        {
          "indexed": true,
          "internalType": "address",
          "name": "newOwner",
          "type": "address"
        }
      ],
      "name": "OwnershipTransferred",
      "type": "event"
    },
    {
      "anonymous": false,
      "inputs": [
        {
          "indexed": true,
          "internalType": "address",
          "name": "player",
          "type": "address"
        },
        {
          "indexed": false,
          "internalType": "uint256",
          "name": "amount",
          "type": "uint256"
        }
      ],
      "name": "PlayerGotPayed",
      "type": "event"
    },
    {
      "anonymous": false,
      "inputs": [
        {
          "indexed": false,
          "internalType": "uint256",
          "name": "round",
          "type": "uint256"
        },
        {
          "indexed": false,
          "internalType": "string",
          "name": "team",
          "type": "string"
        }
      ],
      "name": "WinningTeamEstablished",
      "type": "event"
    },
    {
      "inputs": [],
      "name": "getAcceptedTeams",
      "outputs": [
        {
          "internalType": "string[]",
          "name": "",
          "type": "string[]"
        }
      ],
      "stateMutability": "view",
      "type": "function"
    },
    {
      "inputs": [],
      "name": "getAllBets",
      "outputs": [
        {
          "components": [
            {
              "internalType": "address",
              "name": "player",
              "type": "address"
            },
            {
              "internalType": "string",
              "name": "team",
              "type": "string"
            },
            {
              "internalType": "uint256",
              "name": "amount",
              "type": "uint256"
            }
          ],
          "internalType": "struct BettingPool.Bet[]",
          "name": "",
          "type": "tuple[]"
        }
      ],
      "stateMutability": "view",
      "type": "function"
    },
    {
      "inputs": [],
      "name": "getBetValue",
      "outputs": [
        {
          "internalType": "uint256",
          "name": "",
          "type": "uint256"
        }
      ],
      "stateMutability": "view",
      "type": "function"
    },
    {
      "inputs": [],
      "name": "getTotalPot",
      "outputs": [
        {
          "internalType": "uint256",
          "name": "",
          "type": "uint256"
        }
      ],
      "stateMutability": "view",
      "type": "function"
    },
    {
      "inputs": [],
      "name": "isContractInUse",
      "outputs": [
        {
          "internalType": "bool",
          "name": "",
          "type": "bool"
        }
      ],
      "stateMutability": "view",
      "type": "function"
    },
    {
      "inputs": [],
      "name": "owner",
      "outputs": [
        {
          "internalType": "address",
          "name": "",
          "type": "address"
        }
      ],
      "stateMutability": "view",
      "type": "function"
    },
    {
      "inputs": [
        {
          "internalType": "string",
          "name": "team",
          "type": "string"
        }
      ],
      "name": "placeBet",
      "outputs": [],
      "stateMutability": "payable",
      "type": "function"
    },
    {
      "inputs": [],
      "name": "renounceOwnership",
      "outputs": [],
      "stateMutability": "nonpayable",
      "type": "function"
    },
    {
      "inputs": [
        {
          "internalType": "string[]",
          "name": "teams",
          "type": "string[]"
        },
        {
          "internalType": "uint256",
          "name": "valueOfBets",
          "type": "uint256"
        }
      ],
      "name": "setUpBettingEvent",
      "outputs": [],
      "stateMutability": "nonpayable",
      "type": "function"
    },
    {
      "inputs": [
        {
          "internalType": "address",
          "name": "newOwner",
          "type": "address"
        }
      ],
      "name": "transferOwnership",
      "outputs": [],
      "stateMutability": "nonpayable",
      "type": "function"
    },
    {
      "inputs": [
        {
          "internalType": "string",
          "name": "winningTeam",
          "type": "string"
        }
      ],
      "name": "payPlayers",
      "outputs": [],
      "stateMutability": "nonpayable",
      "type": "function"
    }
  ],
  "bytecode": "0x608060405234801561001057600080fd5b5061002d61002261005560201b60201c565b61005d60201b60201c565b60006001819055506000600260006101000a81548160ff021916908315150217905550610121565b600033905090565b60008060009054906101000a900473ffffffffffffffffffffffffffffffffffffffff169050816000806101000a81548173ffffffffffffffffffffffffffffffffffffffff021916908373ffffffffffffffffffffffffffffffffffffffff1602179055508173ffffffffffffffffffffffffffffffffffffffff168173ffffffffffffffffffffffffffffffffffffffff167f8be0079c531659141344cd1fd0a4f28419497f9722a3daafe3b4186f6b6457e060405160405180910390a35050565b61239d80620001316000396000f3fe60806040526004361061009c5760003560e01c8063715018a611610064578063715018a6146101765780638da5cb5b1461018d57806397bfeb88146101b8578063a606d5fd146101d4578063b71b2bbf146101ff578063f2fde38b146102285761009c565b8063272348bb146100a1578063480bc31f146100cc5780634a64877a146100f75780636e8c9a1414610120578063700eae731461014b575b600080fd5b3480156100ad57600080fd5b506100b6610251565b6040516100c39190611640565b60405180910390f35b3480156100d857600080fd5b506100e161039a565b6040516100ee919061167b565b60405180910390f35b34801561010357600080fd5b5061011e600480360381019061011991906118f1565b6103a2565b005b34801561012c57600080fd5b506101356104ff565b604051610142919061167b565b60405180910390f35b34801561015757600080fd5b50610160610509565b60405161016d9190611aaf565b60405180910390f35b34801561018257600080fd5b5061018b6106d0565b005b34801561019957600080fd5b506101a2610758565b6040516101af9190611ae0565b60405180910390f35b6101d260048036038101906101cd9190611afb565b610781565b005b3480156101e057600080fd5b506101e9610a72565b6040516101f69190611b5f565b60405180910390f35b34801561020b57600080fd5b5061022660048036038101906102219190611afb565b610a89565b005b34801561023457600080fd5b5061024f600480360381019061024a9190611ba6565b610ffb565b005b6060600060058054905067ffffffffffffffff811115610274576102736116af565b5b6040519080825280602002602001820160405280156102a757816020015b60608152602001906001900390816102925790505b50905060005b60058054905081101561039257600581815481106102ce576102cd611bd3565b5b9060005260206000200180546102e390611c31565b80601f016020809104026020016040519081016040528092919081815260200182805461030f90611c31565b801561035c5780601f106103315761010080835404028352916020019161035c565b820191906000526020600020905b81548152906001019060200180831161033f57829003601f168201915b505050505082828151811061037457610373611bd3565b5b6020026020010181905250808061038a90611c92565b9150506102ad565b508091505090565b600047905090565b6103aa6110f3565b73ffffffffffffffffffffffffffffffffffffffff166103c8610758565b73ffffffffffffffffffffffffffffffffffffffff161461041e576040517f08c379a000000000000000000000000000000000000000000000000000000000815260040161041590611d38565b60405180910390fd5b60001515600260009054906101000a900460ff16151514610474576040517f08c379a000000000000000000000000000000000000000000000000000000000815260040161046b90611da4565b60405180910390fd5b60018251116104b8576040517f08c379a00000000000000000000000000000000000000000000000000000000081526004016104af90611e36565b60405180910390fd5b600160008154809291906104cb90611c92565b91905055506001600260006101000a81548160ff021916908315150217905550806003819055506104fb826110fb565b5050565b6000600354905090565b6060600060048054905067ffffffffffffffff81111561052c5761052b6116af565b5b60405190808252806020026020018201604052801561056557816020015b61055261130c565b81526020019060019003908161054a5790505b50905060005b6004805490508110156106c8576004818154811061058c5761058b611bd3565b5b90600052602060002090600302016040518060600160405290816000820160009054906101000a900473ffffffffffffffffffffffffffffffffffffffff1673ffffffffffffffffffffffffffffffffffffffff1673ffffffffffffffffffffffffffffffffffffffff16815260200160018201805461060b90611c31565b80601f016020809104026020016040519081016040528092919081815260200182805461063790611c31565b80156106845780601f1061065957610100808354040283529160200191610684565b820191906000526020600020905b81548152906001019060200180831161066757829003601f168201915b505050505081526020016002820154815250508282815181106106aa576106a9611bd3565b5b602002602001018190525080806106c090611c92565b91505061056b565b508091505090565b6106d86110f3565b73ffffffffffffffffffffffffffffffffffffffff166106f6610758565b73ffffffffffffffffffffffffffffffffffffffff161461074c576040517f08c379a000000000000000000000000000000000000000000000000000000000815260040161074390611d38565b60405180910390fd5b6107566000611174565b565b60008060009054906101000a900473ffffffffffffffffffffffffffffffffffffffff16905090565b600260009054906101000a900460ff166107d0576040517f08c379a00000000000000000000000000000000000000000000000000000000081526004016107c790611ea2565b60405180910390fd5b60003390506000349050600354811461081e576040517f08c379a000000000000000000000000000000000000000000000000000000000815260040161081590611f0e565b60405180910390fd5b61082783611238565b610866576040517f08c379a000000000000000000000000000000000000000000000000000000000815260040161085d90611f7a565b60405180910390fd5b60001515600660008473ffffffffffffffffffffffffffffffffffffffff1673ffffffffffffffffffffffffffffffffffffffff16815260200190815260200160002060009054906101000a900460ff161515146108f9576040517f08c379a00000000000000000000000000000000000000000000000000000000081526004016108f090611fe6565b60405180910390fd5b600460405180606001604052808473ffffffffffffffffffffffffffffffffffffffff16815260200185815260200183815250908060018154018082558091505060019003906000526020600020906003020160009091909190915060008201518160000160006101000a81548173ffffffffffffffffffffffffffffffffffffffff021916908373ffffffffffffffffffffffffffffffffffffffff16021790555060208201518160010190805190602001906109b8929190611343565b506040820151816002015550506001600660008473ffffffffffffffffffffffffffffffffffffffff1673ffffffffffffffffffffffffffffffffffffffff16815260200190815260200160002060006101000a81548160ff0219169083151502179055508173ffffffffffffffffffffffffffffffffffffffff167fed9e8d4ee7cb095e0673cd5e842e9fe8038df3e3d8b2f35cd251b1940ae6a1428483604051610a6592919061203f565b60405180910390a2505050565b6000600260009054906101000a900460ff16905090565b600260009054906101000a900460ff16610ad8576040517f08c379a0000000000000000000000000000000000000000000000000000000008152600401610acf90611ea2565b60405180910390fd5b610ae181611238565b610b20576040517f08c379a0000000000000000000000000000000000000000000000000000000008152600401610b17906120bb565b60405180910390fd5b600260009054906101000a900460ff16610b6f576040517f08c379a0000000000000000000000000000000000000000000000000000000008152600401610b6690612127565b60405180910390fd5b6000600260006101000a81548160ff0219169083151502179055507f41127b18d80a868578fe2613b8c3b4810d391c7e7be5a6d2109d444171b4275560015482604051610bbd929190612147565b60405180910390a1600081604051602001610bd891906121b3565b604051602081830303815290604052805190602001209050600060048054905067ffffffffffffffff811115610c1157610c106116af565b5b604051908082528060200260200182016040528015610c3f5781602001602082028036833780820191505090505b5090506000805b600480549050811015610daf57600060048281548110610c6957610c68611bd3565b5b906000526020600020906003020160000160009054906101000a900473ffffffffffffffffffffffffffffffffffffffff169050600660008273ffffffffffffffffffffffffffffffffffffffff1673ffffffffffffffffffffffffffffffffffffffff16815260200190815260200160002060006101000a81549060ff02191690558460048381548110610d0157610d00611bd3565b5b9060005260206000209060030201600101604051602001610d22919061225e565b604051602081830303815290604052805190602001201415610d9b5780848481518110610d5257610d51611bd3565b5b602002602001019073ffffffffffffffffffffffffffffffffffffffff16908173ffffffffffffffffffffffffffffffffffffffff16815250508280610d9790611c92565b9350505b508080610da790611c92565b915050610c46565b506000811415610eed5760005b600480549050811015610ee757600060048281548110610ddf57610dde611bd3565b5b9060005260206000209060030201600201549050600060048381548110610e0957610e08611bd3565b5b906000526020600020906003020160000160009054906101000a900473ffffffffffffffffffffffffffffffffffffffff1690508073ffffffffffffffffffffffffffffffffffffffff166108fc839081150290604051600060405180830381858888f19350505050158015610e83573d6000803e3d6000fd5b508073ffffffffffffffffffffffffffffffffffffffff167f3b9149b34b545685d632ff18ab2134c63205e7ad4d865371183a0ed72cd40c6c83604051610eca919061167b565b60405180910390a250508080610edf90611c92565b915050610dbc565b50610fed565b600047905060008282610f0091906122a4565b905060005b83811015610fe957848181518110610f2057610f1f611bd3565b5b602002602001015173ffffffffffffffffffffffffffffffffffffffff166108fc839081150290604051600060405180830381858888f19350505050158015610f6d573d6000803e3d6000fd5b50848181518110610f8157610f80611bd3565b5b602002602001015173ffffffffffffffffffffffffffffffffffffffff167f3b9149b34b545685d632ff18ab2134c63205e7ad4d865371183a0ed72cd40c6c83604051610fce919061167b565b60405180910390a28080610fe190611c92565b915050610f05565b5050505b610ff56112e6565b50505050565b6110036110f3565b73ffffffffffffffffffffffffffffffffffffffff16611021610758565b73ffffffffffffffffffffffffffffffffffffffff1614611077576040517f08c379a000000000000000000000000000000000000000000000000000000000815260040161106e90611d38565b60405180910390fd5b600073ffffffffffffffffffffffffffffffffffffffff168173ffffffffffffffffffffffffffffffffffffffff1614156110e7576040517f08c379a00000000000000000000000000000000000000000000000000000000081526004016110de90612347565b60405180910390fd5b6110f081611174565b50565b600033905090565b60005b815181101561117057600582828151811061111c5761111b611bd3565b5b602002602001015190806001815401808255809150506001900390600052602060002001600090919091909150908051906020019061115c929190611343565b50808061116890611c92565b9150506110fe565b5050565b60008060009054906101000a900473ffffffffffffffffffffffffffffffffffffffff169050816000806101000a81548173ffffffffffffffffffffffffffffffffffffffff021916908373ffffffffffffffffffffffffffffffffffffffff1602179055508173ffffffffffffffffffffffffffffffffffffffff168173ffffffffffffffffffffffffffffffffffffffff167f8be0079c531659141344cd1fd0a4f28419497f9722a3daafe3b4186f6b6457e060405160405180910390a35050565b600080600090505b6005805490508110156112db578260405160200161125e91906121b3565b604051602081830303815290604052805190602001206005828154811061128857611287611bd3565b5b906000526020600020016040516020016112a2919061225e565b6040516020818303038152906040528051906020012014156112c85760019150506112e1565b80806112d390611c92565b915050611240565b50600090505b919050565b6000600381905550600460006112fc91906113c9565b6005600061130a91906113ed565b565b6040518060600160405280600073ffffffffffffffffffffffffffffffffffffffff16815260200160608152602001600081525090565b82805461134f90611c31565b90600052602060002090601f01602090048101928261137157600085556113b8565b82601f1061138a57805160ff19168380011785556113b8565b828001600101855582156113b8579182015b828111156113b757825182559160200191906001019061139c565b5b5090506113c5919061140e565b5090565b50805460008255600302906000526020600020908101906113ea919061142b565b50565b508054600082559060005260206000209081019061140b9190611481565b50565b5b8082111561142757600081600090555060010161140f565b5090565b5b8082111561147d57600080820160006101000a81549073ffffffffffffffffffffffffffffffffffffffff021916905560018201600061146c91906114a5565b60028201600090555060030161142c565b5090565b5b808211156114a1576000818161149891906114a5565b50600101611482565b5090565b5080546114b190611c31565b6000825580601f106114c357506114e2565b601f0160209004906000526020600020908101906114e1919061140e565b5b50565b600081519050919050565b600082825260208201905092915050565b6000819050602082019050919050565b600081519050919050565b600082825260208201905092915050565b60005b8381101561154b578082015181840152602081019050611530565b8381111561155a576000848401525b50505050565b6000601f19601f8301169050919050565b600061157c82611511565b611586818561151c565b935061159681856020860161152d565b61159f81611560565b840191505092915050565b60006115b68383611571565b905092915050565b6000602082019050919050565b60006115d6826114e5565b6115e081856114f0565b9350836020820285016115f285611501565b8060005b8581101561162e578484038952815161160f85826115aa565b945061161a836115be565b925060208a019950506001810190506115f6565b50829750879550505050505092915050565b6000602082019050818103600083015261165a81846115cb565b905092915050565b6000819050919050565b61167581611662565b82525050565b6000602082019050611690600083018461166c565b92915050565b6000604051905090565b600080fd5b600080fd5b600080fd5b7f4e487b7100000000000000000000000000000000000000000000000000000000600052604160045260246000fd5b6116e782611560565b810181811067ffffffffffffffff82111715611706576117056116af565b5b80604052505050565b6000611719611696565b905061172582826116de565b919050565b600067ffffffffffffffff821115611745576117446116af565b5b602082029050602081019050919050565b600080fd5b600080fd5b600067ffffffffffffffff82111561177b5761177a6116af565b5b61178482611560565b9050602081019050919050565b82818337600083830152505050565b60006117b36117ae84611760565b61170f565b9050828152602081018484840111156117cf576117ce61175b565b5b6117da848285611791565b509392505050565b600082601f8301126117f7576117f66116aa565b5b81356118078482602086016117a0565b91505092915050565b600061182361181e8461172a565b61170f565b9050808382526020820190506020840283018581111561184657611845611756565b5b835b8181101561188d57803567ffffffffffffffff81111561186b5761186a6116aa565b5b80860161187889826117e2565b85526020850194505050602081019050611848565b5050509392505050565b600082601f8301126118ac576118ab6116aa565b5b81356118bc848260208601611810565b91505092915050565b6118ce81611662565b81146118d957600080fd5b50565b6000813590506118eb816118c5565b92915050565b60008060408385031215611908576119076116a0565b5b600083013567ffffffffffffffff811115611926576119256116a5565b5b61193285828601611897565b9250506020611943858286016118dc565b9150509250929050565b600081519050919050565b600082825260208201905092915050565b6000819050602082019050919050565b600073ffffffffffffffffffffffffffffffffffffffff82169050919050565b60006119a482611979565b9050919050565b6119b481611999565b82525050565b6119c381611662565b82525050565b60006060830160008301516119e160008601826119ab565b50602083015184820360208601526119f98282611571565b9150506040830151611a0e60408601826119ba565b508091505092915050565b6000611a2583836119c9565b905092915050565b6000602082019050919050565b6000611a458261194d565b611a4f8185611958565b935083602082028501611a6185611969565b8060005b85811015611a9d5784840389528151611a7e8582611a19565b9450611a8983611a2d565b925060208a01995050600181019050611a65565b50829750879550505050505092915050565b60006020820190508181036000830152611ac98184611a3a565b905092915050565b611ada81611999565b82525050565b6000602082019050611af56000830184611ad1565b92915050565b600060208284031215611b1157611b106116a0565b5b600082013567ffffffffffffffff811115611b2f57611b2e6116a5565b5b611b3b848285016117e2565b91505092915050565b60008115159050919050565b611b5981611b44565b82525050565b6000602082019050611b746000830184611b50565b92915050565b611b8381611999565b8114611b8e57600080fd5b50565b600081359050611ba081611b7a565b92915050565b600060208284031215611bbc57611bbb6116a0565b5b6000611bca84828501611b91565b91505092915050565b7f4e487b7100000000000000000000000000000000000000000000000000000000600052603260045260246000fd5b7f4e487b7100000000000000000000000000000000000000000000000000000000600052602260045260246000fd5b60006002820490506001821680611c4957607f821691505b60208210811415611c5d57611c5c611c02565b5b50919050565b7f4e487b7100000000000000000000000000000000000000000000000000000000600052601160045260246000fd5b6000611c9d82611662565b91507fffffffffffffffffffffffffffffffffffffffffffffffffffffffffffffffff821415611cd057611ccf611c63565b5b600182019050919050565b600082825260208201905092915050565b7f4f776e61626c653a2063616c6c6572206973206e6f7420746865206f776e6572600082015250565b6000611d22602083611cdb565b9150611d2d82611cec565b602082019050919050565b60006020820190508181036000830152611d5181611d15565b9050919050565b7f436f6e747261637420697320696e207573650000000000000000000000000000600082015250565b6000611d8e601283611cdb565b9150611d9982611d58565b602082019050919050565b60006020820190508181036000830152611dbd81611d81565b9050919050565b7f43616e2774206861766520612062657474696e672067616d6520776974686f7560008201527f74206174206c656173742074776f207465616d732e0000000000000000000000602082015250565b6000611e20603583611cdb565b9150611e2b82611dc4565b604082019050919050565b60006020820190508181036000830152611e4f81611e13565b9050919050565b7f436f6e7472616374206973206e6f7420696e2075736500000000000000000000600082015250565b6000611e8c601683611cdb565b9150611e9782611e56565b602082019050919050565b60006020820190508181036000830152611ebb81611e7f565b9050919050565b7f496e636f72726563742066756e64732e00000000000000000000000000000000600082015250565b6000611ef8601083611cdb565b9150611f0382611ec2565b602082019050919050565b60006020820190508181036000830152611f2781611eeb565b9050919050565b7f5465616d20697320696e76616c69642e00000000000000000000000000000000600082015250565b6000611f64601083611cdb565b9150611f6f82611f2e565b602082019050919050565b60006020820190508181036000830152611f9381611f57565b9050919050565b7f506c617965722068617320616c72656164792062657400000000000000000000600082015250565b6000611fd0601683611cdb565b9150611fdb82611f9a565b602082019050919050565b60006020820190508181036000830152611fff81611fc3565b9050919050565b600061201182611511565b61201b8185611cdb565b935061202b81856020860161152d565b61203481611560565b840191505092915050565b600060408201905081810360008301526120598185612006565b9050612068602083018461166c565b9392505050565b7f546865207465616d206973206e6f742076616c69640000000000000000000000600082015250565b60006120a5601583611cdb565b91506120b08261206f565b602082019050919050565b600060208201905081810360008301526120d481612098565b9050919050565b7f636f6e7472616374206973206e6f7420696e2075736500000000000000000000600082015250565b6000612111601683611cdb565b915061211c826120db565b602082019050919050565b6000602082019050818103600083015261214081612104565b9050919050565b600060408201905061215c600083018561166c565b818103602083015261216e8184612006565b90509392505050565b600081905092915050565b600061218d82611511565b6121978185612177565b93506121a781856020860161152d565b80840191505092915050565b60006121bf8284612182565b915081905092915050565b60008190508160005260206000209050919050565b600081546121ec81611c31565b6121f68186612177565b94506001821660008114612211576001811461222257612255565b60ff19831686528186019350612255565b61222b856121ca565b60005b8381101561224d5781548189015260018201915060208101905061222e565b838801955050505b50505092915050565b600061226a82846121df565b915081905092915050565b7f4e487b7100000000000000000000000000000000000000000000000000000000600052601260045260246000fd5b60006122af82611662565b91506122ba83611662565b9250826122ca576122c9612275565b5b828204905092915050565b7f4f776e61626c653a206e6577206f776e657220697320746865207a65726f206160008201527f6464726573730000000000000000000000000000000000000000000000000000602082015250565b6000612331602683611cdb565b915061233c826122d5565b604082019050919050565b6000602082019050818103600083015261236081612324565b905091905056fea26469706673582212202da53f59fe1f08c80a2481e5b0336c653e0ee5de0468ca53cb4dadf22b4b13d764736f6c634300080b0033",
  "immutableReferences": {},
  "source": "//SPDX-License-Identifier: UNLICENSED\r\npragma solidity ^0.8.11;\r\n\r\nimport \"./bettingpool.sol\";\r\n\r\ncontract Payout is BettingPool {\r\n\r\n    event PlayerGotPayed(address indexed player, uint amount);\r\n    event WinningTeamEstablished(uint round, string team);\r\n\r\n    // this function will pay players and return contract to starting point\r\n    function payPlayers(string memory winningTeam) external inUse {\r\n        require(checkTeamValid(winningTeam), \"The team is not valid\");\r\n        require(contractInUse, \"contract is not in use\");\r\n\r\n        // winning team is valid\r\n        contractInUse = false; \r\n        emit WinningTeamEstablished(bettingRound, winningTeam);\r\n\r\n        bytes32 winningTeamHash = keccak256(abi.encodePacked(winningTeam));\r\n        address payable[] memory winners = new address payable[](bets.length);\r\n        // get the winning players\r\n        uint numberOfWinners = 0;\r\n        for (uint i = 0; i < bets.length; i++) {\r\n            address player = bets[i].player;\r\n            // use this loop to eliminate the playerHasBet mapping\r\n            delete playerHasBet[player];\r\n            if(keccak256(abi.encodePacked(bets[i].team)) == winningTeamHash) {\r\n                winners[numberOfWinners] = payable(player);\r\n                numberOfWinners++;\r\n            }\r\n        }\r\n        // pay players accordingly\r\n        if (numberOfWinners == 0) { // everyone gets their money back\r\n            for (uint i = 0; i < bets.length; i++) {\r\n                uint payout = bets[i].amount;\r\n                address payable player = payable(bets[i].player);\r\n                player.transfer(payout);\r\n                emit PlayerGotPayed(player, payout);\r\n            }\r\n        } else { // winners split the pot\r\n            uint totalPot = address(this).balance;\r\n            uint payout = totalPot / numberOfWinners;\r\n            for (uint i = 0; i < numberOfWinners; i++) {\r\n                winners[i].transfer(payout);\r\n                emit PlayerGotPayed(winners[i], payout);\r\n            }\r\n        }\r\n        // game is over, reset for next round\r\n        resetContract();\r\n    }\r\n        \r\n    \r\n    function resetContract() private {\r\n        betValue = 0;\r\n        delete bets;\r\n        delete acceptedTeams;\r\n    }\r\n}",
  "sourcePath": "C:\\Users\\ikeef\\OneDrive\\Documents\\GitHub\\BettingOnBlockchainDapp\\BettingContract\\contracts\\payout.sol",
  "compiler": {
    "name": "solc",
    "version": "0.8.11+commit.d7f03943.Emscripten.clang"
  },
  "schemaVersion": "3.4.4",
  "updatedAt": "2022-01-20T22:48:17.709Z",
  "devdoc": {
    "kind": "dev",
    "methods": {
      "owner()": {
        "details": "Returns the address of the current owner."
      },
      "renounceOwnership()": {
        "details": "Leaves the contract without owner. It will not be possible to call `onlyOwner` functions anymore. Can only be called by the current owner. NOTE: Renouncing ownership will leave the contract without an owner, thereby removing any functionality that is only available to the owner."
      },
      "transferOwnership(address)": {
        "details": "Transfers ownership of the contract to a new account (`newOwner`). Can only be called by the current owner."
      }
    },
    "version": 1
  },
  "userdoc": {
    "kind": "user",
    "methods": {},
    "version": 1
  }
}