{
  "contractName": "NFLCallerContract",
  "abi": [
    {
      "inputs": [
        {
          "internalType": "address",
          "name": "_oracleInstanceAddress",
          "type": "address"
        }
      ],
      "name": "setOracleInstanceAddress",
      "outputs": [],
      "stateMutability": "nonpayable",
      "type": "function"
    }
  ],
  "bytecode": "0x608060405234801561001057600080fd5b506101b8806100206000396000f3fe608060405234801561001057600080fd5b506004361061002b5760003560e01c8063e9e17a9e14610030575b600080fd5b61004a60048036038101906100459190610155565b61004c565b005b80600160006101000a81548173ffffffffffffffffffffffffffffffffffffffff021916908373ffffffffffffffffffffffffffffffffffffffff160217905550600160009054906101000a900473ffffffffffffffffffffffffffffffffffffffff166000806101000a81548173ffffffffffffffffffffffffffffffffffffffff021916908373ffffffffffffffffffffffffffffffffffffffff16021790555050565b600080fd5b600073ffffffffffffffffffffffffffffffffffffffff82169050919050565b6000610122826100f7565b9050919050565b61013281610117565b811461013d57600080fd5b50565b60008135905061014f81610129565b92915050565b60006020828403121561016b5761016a6100f2565b5b600061017984828501610140565b9150509291505056fea26469706673582212206dd012ae75384b960fc6468263ff82293e6e2b317bdc666fe019973c6e62a48364736f6c634300080b0033",
  "immutableReferences": {},
  "source": "//SPDX-License-Identifier: UNLICENSED\r\npragma solidity ^0.8.11;\r\n\r\nimport \"./NFLOracleInterface.sol\";\r\n\r\ncontract NFLCallerContract {\r\n    NFLOracleInterface private oracleInstance;\r\n    address private oracleAddress;\r\n\r\n    function setOracleInstanceAddress (address _oracleInstanceAddress) public {\r\n      oracleAddress = _oracleInstanceAddress;\r\n      oracleInstance = NFLOracleInterface(oracleAddress);\r\n    }\r\n}",
  "sourcePath": "C:\\Users\\ikeef\\OneDrive\\Documents\\GitHub\\BettingOnBlockchainDapp\\NFLOracleCaller\\contracts\\NFLCallerContract.sol",
  "compiler": {
    "name": "solc",
    "version": "0.8.11+commit.d7f03943.Emscripten.clang"
  },
  "schemaVersion": "3.4.4",
  "updatedAt": "2022-01-20T23:21:17.338Z",
  "devdoc": {
    "kind": "dev",
    "methods": {},
    "version": 1
  },
  "userdoc": {
    "kind": "user",
    "methods": {},
    "version": 1
  }
}